{
  "contractName": "DataIntegrity",
  "abi": [
    {
      "inputs": [],
      "stateMutability": "nonpayable",
      "type": "constructor"
    },
    {
      "anonymous": false,
      "inputs": [
        {
          "indexed": true,
          "internalType": "string",
          "name": "transactionId",
          "type": "string"
        },
        {
          "indexed": false,
          "internalType": "string",
          "name": "storedHash",
          "type": "string"
        },
        {
          "indexed": false,
          "internalType": "uint256",
          "name": "timestamp",
          "type": "uint256"
        }
      ],
      "name": "LogHashStored",
      "type": "event"
    },
    {
      "inputs": [],
      "name": "owner",
      "outputs": [
        {
          "internalType": "address",
          "name": "",
          "type": "address"
        }
      ],
      "stateMutability": "view",
      "type": "function",
      "constant": true
    },
    {
      "inputs": [
        {
          "internalType": "string",
          "name": "_trxId",
          "type": "string"
        },
        {
          "internalType": "string",
          "name": "_hash",
          "type": "string"
        }
      ],
      "name": "storeHash",
      "outputs": [],
      "stateMutability": "nonpayable",
      "type": "function"
    },
    {
      "inputs": [
        {
          "internalType": "string",
          "name": "_trxId",
          "type": "string"
        },
        {
          "internalType": "string",
          "name": "_compareHash",
          "type": "string"
        }
      ],
      "name": "verifyHash",
      "outputs": [
        {
          "internalType": "bool",
          "name": "",
          "type": "bool"
        }
      ],
      "stateMutability": "view",
      "type": "function",
      "constant": true
    }
  ],
  "bytecode": "0x608060405234801561001057600080fd5b50336000806101000a81548173ffffffffffffffffffffffffffffffffffffffff021916908373ffffffffffffffffffffffffffffffffffffffff160217905550610b15806100606000396000f3fe608060405234801561001057600080fd5b50600436106100415760003560e01c8063258b85d4146100465780636f28ee09146100765780638da5cb5b14610092575b600080fd5b610060600480360381019061005b919061041e565b6100b0565b60405161006d91906104b1565b60405180910390f35b610090600480360381019061008b919061041e565b610126565b005b61009a6102a0565b6040516100a7919061050d565b60405180910390f35b6000816040516020016100c39190610599565b604051602081830303815290604052805190602001206001846040516100e99190610599565b908152602001604051809103902060405160200161010791906106a8565b6040516020818303038152906040528051906020012014905092915050565b60008054906101000a900473ffffffffffffffffffffffffffffffffffffffff1673ffffffffffffffffffffffffffffffffffffffff163373ffffffffffffffffffffffffffffffffffffffff16146101b4576040517f08c379a00000000000000000000000000000000000000000000000000000000081526004016101ab90610742565b60405180910390fd5b60006001836040516101c69190610599565b908152602001604051809103902080546101df906105df565b905014610221576040517f08c379a0000000000000000000000000000000000000000000000000000000008152600401610218906107d4565b60405180910390fd5b806001836040516102329190610599565b9081526020016040518091039020908161024c9190610995565b508160405161025b9190610599565b60405180910390207f22e7d10b6741b21a2c0789fb03e97aa14e8d03d8b4987a0d451c33fc2c296a6d8242604051610294929190610aaf565b60405180910390a25050565b60008054906101000a900473ffffffffffffffffffffffffffffffffffffffff1681565b6000604051905090565b600080fd5b600080fd5b600080fd5b600080fd5b6000601f19601f8301169050919050565b7f4e487b7100000000000000000000000000000000000000000000000000000000600052604160045260246000fd5b61032b826102e2565b810181811067ffffffffffffffff8211171561034a576103496102f3565b5b80604052505050565b600061035d6102c4565b90506103698282610322565b919050565b600067ffffffffffffffff821115610389576103886102f3565b5b610392826102e2565b9050602081019050919050565b82818337600083830152505050565b60006103c16103bc8461036e565b610353565b9050828152602081018484840111156103dd576103dc6102dd565b5b6103e884828561039f565b509392505050565b600082601f830112610405576104046102d8565b5b81356104158482602086016103ae565b91505092915050565b60008060408385031215610435576104346102ce565b5b600083013567ffffffffffffffff811115610453576104526102d3565b5b61045f858286016103f0565b925050602083013567ffffffffffffffff8111156104805761047f6102d3565b5b61048c858286016103f0565b9150509250929050565b60008115159050919050565b6104ab81610496565b82525050565b60006020820190506104c660008301846104a2565b92915050565b600073ffffffffffffffffffffffffffffffffffffffff82169050919050565b60006104f7826104cc565b9050919050565b610507816104ec565b82525050565b600060208201905061052260008301846104fe565b92915050565b600081519050919050565b600081905092915050565b60005b8381101561055c578082015181840152602081019050610541565b60008484015250505050565b600061057382610528565b61057d8185610533565b935061058d81856020860161053e565b80840191505092915050565b60006105a58284610568565b915081905092915050565b7f4e487b7100000000000000000000000000000000000000000000000000000000600052602260045260246000fd5b600060028204905060018216806105f757607f821691505b60208210810361060a576106096105b0565b5b50919050565b60008190508160005260206000209050919050565b60008154610632816105df565b61063c8186610533565b94506001821660008114610657576001811461066c5761069f565b60ff198316865281151582028601935061069f565b61067585610610565b60005b8381101561069757815481890152600182019150602081019050610678565b838801955050505b50505092915050565b60006106b48284610625565b915081905092915050565b600082825260208201905092915050565b7f48616e79612041646d696e204275726a6f204d696e616e672079616e6720626f60008201527f6c656820696e7075742064617461210000000000000000000000000000000000602082015250565b600061072c602f836106bf565b9150610737826106d0565b604082019050919050565b6000602082019050818103600083015261075b8161071f565b9050919050565b7f4461746120494420696e69207375646168207465726b756e6369207065726d6160008201527f6e656e20646920426c6f636b636861696e210000000000000000000000000000602082015250565b60006107be6032836106bf565b91506107c982610762565b604082019050919050565b600060208201905081810360008301526107ed816107b1565b9050919050565b60006020601f8301049050919050565b600082821b905092915050565b6000600883026108417fffffffffffffffffffffffffffffffffffffffffffffffffffffffffffffffff82610804565b61084b8683610804565b95508019841693508086168417925050509392505050565b6000819050919050565b6000819050919050565b600061089261088d61088884610863565b61086d565b610863565b9050919050565b6000819050919050565b6108ac83610877565b6108c06108b882610899565b848454610811565b825550505050565b600090565b6108d56108c8565b6108e08184846108a3565b505050565b5b81811015610904576108f96000826108cd565b6001810190506108e6565b5050565b601f8211156109495761091a81610610565b610923846107f4565b81016020851015610932578190505b61094661093e856107f4565b8301826108e5565b50505b505050565b600082821c905092915050565b600061096c6000198460080261094e565b1980831691505092915050565b6000610985838361095b565b9150826002028217905092915050565b61099e82610528565b67ffffffffffffffff8111156109b7576109b66102f3565b5b6109c182546105df565b6109cc828285610908565b600060209050601f8311600181146109ff57600084156109ed578287015190505b6109f78582610979565b865550610a5f565b601f198416610a0d86610610565b60005b82811015610a3557848901518255600182019150602085019450602081019050610a10565b86831015610a525784890151610a4e601f89168261095b565b8355505b6001600288020188555050505b505050505050565b6000610a7282610528565b610a7c81856106bf565b9350610a8c81856020860161053e565b610a95816102e2565b840191505092915050565b610aa981610863565b82525050565b60006040820190508181036000830152610ac98185610a67565b9050610ad86020830184610aa0565b939250505056fea2646970667358221220c98d3f678bd558d4532ec32b9f7f0bf490880e5569c2ecde0fbc2d005c59b21464736f6c63430008130033",
  "immutableReferences": {},
  "source": "// SPDX-License-Identifier: MIT\r\npragma solidity ^0.8.0;\r\n\r\ncontract DataIntegrity {\r\n    address public owner;\r\n\r\n    // Mapping: ID Transaksi (String) => Hash Transaksi (String)\r\n    mapping(string => string) private hashes;\r\n    \r\n    // Event: Agar Laravel bisa mendengar kalau data sukses masuk\r\n    event LogHashStored(string indexed transactionId, string storedHash, uint256 timestamp);\r\n\r\n    constructor() {\r\n        owner = msg.sender;\r\n    }\r\n\r\n    modifier onlyOwner() {\r\n        require(msg.sender == owner, \"Hanya Admin Burjo Minang yang boleh input data!\");\r\n        _;\r\n    }\r\n\r\n    // Fungsi Utama: Simpan Hash\r\n    function storeHash(string memory _trxId, string memory _hash) public onlyOwner {\r\n        // Validasi: Pastikan ID ini belum pernah ada (IMMUTABLE)\r\n        // Jika string hash di mapping kosong, berarti ID belum terpakai\r\n        require(bytes(hashes[_trxId]).length == 0, \"Data ID ini sudah terkunci permanen di Blockchain!\");\r\n        \r\n        hashes[_trxId] = _hash;\r\n        emit LogHashStored(_trxId, _hash, block.timestamp);\r\n    }\r\n\r\n    // Fungsi Cek: Verifikasi Data\r\n    function verifyHash(string memory _trxId, string memory _compareHash) public view returns (bool) {\r\n        return keccak256(abi.encodePacked(hashes[_trxId])) == keccak256(abi.encodePacked(_compareHash));\r\n    }\r\n}",
  "sourcePath": "D:\\blocchain-burmin\\blockchain\\contracts\\DataIntegrity.sol",
  "compiler": {
    "name": "solc",
    "version": "0.8.19+commit.7dd6d404.Emscripten.clang"
  },
  "schemaVersion": "3.4.16",
  "updatedAt": "2026-01-17T08:59:13.150Z",
  "networkType": "ethereum",
  "devdoc": {
    "kind": "dev",
    "methods": {},
    "version": 1
  },
  "userdoc": {
    "kind": "user",
    "methods": {},
    "version": 1
  }
}